:1000000012C02CC02BC02AC029C028C027C026C0BF
:1000100025C024C023C022C021C020C01FC01EC0D4
:100020001DC01CC01BC011241FBECFE5D4E0DEBF25
:10003000CDBF10E0A0E6B0E0E8EBF0E002C0059034
:100040000D92A036B107D9F710E0A0E6B0E001C0EC
:100050001D92A036B107E1F702D02CC0D1CF87B3F3
:100060008A6087BB84B3846184BB88B38A6088BBA1
:100070008FE493EC0197F1F700C0000085B3846131
:1000800085BB8FE493EC0197F1F700C0000088B3C3
:10009000857F88BB8FE493EC0197F1F700C00000E7
:1000A00085B38B7E85BB8FE493EC0197F1F700C09D
:0800B0000000DBCFF894FFCF44
:00000001FF
